:100000000C943C000C9459000C9459000C94590029
:100010000C9459000C9459000C9459000C945900FC
:100020000C9459000C94A5000C9459000C945900A0
:100030000C9459000C9459000C9459000C945900DC
:100040000C945B000C9459000C9459000C945900CA
:100050000C9459000C9459000C9459000C945900BC
:100060000C9459000C945900050107010A010C0178
:100070000E0110011201140111241FBECFEFD8E0B0
:10008000DEBFCDBF11E0A0E0B1E0EEEEF3E002C0D4
:1000900005900D92A43CB107D9F723E0A4ECB1E0A0
:1000A00001C01D92AF34B207E1F70E9432010C94F7
:1000B000F5010C9400001F920F920FB60F921124BD
:1000C0002F933F938F939F93AF93BF9380914B0355
:1000D00090914C03A0914D03B0914E0330914A038F
:1000E00023E0230F2D3720F40196A11DB11D05C07B
:1000F00026E8230F0296A11DB11D20934A03809389
:100100004B0390934C03A0934D03B0934E03809107
:10011000460390914703A0914803B091490301968B
:10012000A11DB11D8093460390934703A0934803FC
:10013000B0934903BF91AF919F918F913F912F91C0
:100140000F900FBE0F901F9018951F920F920FB631
:100150000F9211242F933F934F935F936F937F934D
:100160008F939F93AF93BF93CF93DF93EF93FF93BF
:10017000F89484E68093B2008091C401883010F036
:100180001092C4011BB815B86091C401409A4198FF
:1001900080E090E028E1629FB0011124A0EC42E0F1
:1001A00050E09C01220F331F280F391F260F371FE5
:1001B000E0914503E901AE9FC00DD11D1124FE0160
:1001C000EB53FE4FE40FF51FF081E8E0F7FF02C0AC
:1001D0005F9A01C05F98FF0F5E985E9AE150B1F799
:1001E0004150510928F7019688309105C1F6419A8E
:1001F0004198E091C4018E2F90E088309105B8F4C9
:10020000FC01EC5CFF4F0C94EF0181E001C082E047
:1002100085B90FC084E0FCCF88E0FACF80E1F8CF49
:1002200080E2F6CF88E001C080E18BB902C01BB844
:1002300015B88091C4018F5F8093C4017894FF91B9
:10024000EF91DF91CF91BF91AF919F918F917F916E
:100250006F915F914F913F912F910F900FBE0F9033
:100260001F901895789484B5826084BD84B58160B0
:1002700084BD85B5826085BD85B5816085BD809171
:100280006E00816080936E001092810080918100E9
:1002900082608093810080918100816080938100E1
:1002A000809180008160809380008091B1008460A3
:1002B0008093B1008091B00081608093B000809104
:1002C0007A00846080937A0080917A0082608093C3
:1002D0007A0080917A00816080937A0080917A0020
:1002E000806880937A001092C1008FEF8AB987B935
:1002F00084B91BB818B815B8429A4298429A4198E6
:10030000409898E0E3E0F1E08291880F880F26E0C2
:1003100087FF02C05F9A01C05F98880F5E985E9A5F
:100320002150B1F781E0E030F80771F7915051F7B3
:10033000409A1092C4018091B00083608093B00015
:100340008091B10085608093B1008091B1008D7F74
:100350008093B1008091B0008C7F8093B000809139
:10036000B60080628093B6008091700081608093B7
:1003700070008FEF8093B200789410ECC0E0D0E072
:100380004091450321E0413009F420E0422F129FC3
:10039000B001112480E090E0DC01AD5FBE4FFC01B4
:1003A000E60FF71FEB53FE4F38E05C915083119638
:1003B0005C911197518312965C9112975283315040
:1003C000139633963111F1CF4896803C910521F771
:1003D0002097C1F2209345030E940000D1CFEE0F79
:0E03E000FF1F0590F491E02D0994F894FFCFD3
:1003EE000A3F3FFFFF00FFFF00FFFF00FFFF00007F
:1003FE00FF0000FF0000FF0000FF00FFFF00FFFFF7
:10040E0000FFFF00FFFF0000FF0000FF0000FF00E5
:10041E0000FF00FFFF00FFFF00FFFF00FFFF0000D7
:10042E00FF0000FF0000FF0000FF00FFFF00FFFFC6
:10043E0000FFFF00FFFF0000FF0000FF0000FF00B5
:10044E0000FF000000FF0000FF0000FF0000FFFFA4
:10045E000000FF0000FF0000FF00000000FF000092
:10046E00FF0000FF0000FFFF0000FF0000FF000084
:10047E00FF00000000FF0000FF0000FF0000FFFF74
:10048E000000FF0000FF0000FF00000000FF000062
:10049E00FF0000FF0000FFFF0000FF0000FF000054
:0404AE00FF0000004B
:107E0000112484B714BE81FFF0D085E080938100F7
:107E100082E08093C00088E18093C10086E0809377
:107E2000C20080E18093C4008EE0C9D0259A86E02C
:107E300020E33CEF91E0309385002093840096BBD3
:107E4000B09BFECF1D9AA8958150A9F7CC24DD24C4
:107E500088248394B5E0AB2EA1E19A2EF3E0BF2EE7
:107E6000A2D0813461F49FD0082FAFD0023811F036
:107E7000013811F484E001C083E08DD089C08234E0
:107E800011F484E103C0853419F485E0A6D080C0E4
:107E9000853579F488D0E82EFF2485D0082F10E0AE
:107EA000102F00270E291F29000F111F8ED06801E7
:107EB0006FC0863521F484E090D080E0DECF843638
:107EC00009F040C070D06FD0082F6DD080E0C81688
:107ED00080E7D80618F4F601B7BEE895C0E0D1E017
:107EE00062D089930C17E1F7F0E0CF16F0E7DF06D8
:107EF00018F0F601B7BEE89568D007B600FCFDCFD4
:107F0000A601A0E0B1E02C9130E011968C91119780
:107F100090E0982F8827822B932B1296FA010C0160
:107F200087BEE89511244E5F5F4FF1E0A038BF0790
:107F300051F7F601A7BEE89507B600FCFDCF97BE46
:107F4000E89526C08437B1F42ED02DD0F82E2BD052
:107F50003CD0F601EF2C8F010F5F1F4F84911BD097
:107F6000EA94F801C1F70894C11CD11CFA94CF0C13
:107F7000D11C0EC0853739F428D08EE10CD085E9AC
:107F80000AD08FE07ACF813511F488E018D01DD067
:107F900080E101D065CF982F8091C00085FFFCCF94
:107FA0009093C60008958091C00087FFFCCF809118
:107FB000C00084FD01C0A8958091C6000895E0E648
:107FC000F0E098E1908380830895EDDF803219F02E
:107FD00088E0F5DFFFCF84E1DECF1F93182FE3DFCA
:107FE0001150E9F7F2DF1F91089580E0E8DFEE27F6
:047FF000FF270994CA
:027FFE00040479
:0400000300007E007B
:00000001FF
